:100000000FC600002AC6000028C6000026C6000051
:1000100024C6000022C6000020C600001EC6000044
:100020001CC600001AC600000C94F9260C94C527C3
:100030000C94E22012C6000010C600000EC600009C
:100040000CC600000AC6000008C6000006C6000074
:1000500004C600000C94592100C60000FEC5000033
:10006000FCC500000C9420220C94FD21F6C5000074
:10007000F4C50000F2C50000F0C50000EEC50000A8
:10008000ECC50000EAC50000E8C50000E6C50000B8
:10009000E4C50000E2C50000E0C50000DEC50000C8
:1000A000DCC50000DAC50000D8C5000035423A00C2
:1000B0003B003C003D003E00350221023F00400075
:1000C00041004200430031002B0014001A000800D8
:1000D000150017002F0061521C0018000C001200C0
:1000E00013003800290004001600070009000A0068
:1000F0004B434D430B000D000E000F0033002D004D
:10010000E1001D001B000600190005004E004A001A
:1001100011001000360037003400E500E3001F0234
:100120005600552431212A004C0028002C41E600BD
:10013000AA00A900BE00BD0001003A003B003C003F
:100140003D003E00010001003F0040004100420030
:100150004300000001001E001F00200021002200BB
:1001600001000100230024002500260022020000D7
:10017000010057002F002F02260224020100010077
:100180002E0027023002300020020000010025026C
:1001900023025E005C0035020100010000005900EE
:1001A0005A005B005800000001000100010001003E
:1001B0000100010001000100010062006200630013
:1001C00058000000010001000100010001000100D1
:1001D0000100010001000100010001000100010017
:1001E00000000000CD000000D90000000100010067
:1001F0000000000000000000000000000000CF0030
:10020000CE00D000DA0000000100000050005100D4
:1002100052004F000000000000000000000000003D
:1002200000000000010001000000000000000000CC
:10023000000000000000000000000000D100D2001B
:1002400001000100010000000000000000000000AB
:1002500000003A003B003C003D003E002378267839
:100260003F00400041004200430000000000007CCD
:100270002B782078217824780000000025782878D1
:1002800027780000000000000000000000000000CF
:10029000000000000100010000000000000000005C
:1002A000000000000000000000000000000000004E
:1002B000000000000000000000000000000000003E
:1002C000000000000000000000000000000000002E
:1002D0000000000000000000000000006C65645F8A
:1002E0007461736B3A20253032580A004F6E657383
:1002F000686F743A2074696D656F75740A004F6E8B
:100300006573686F743A206163746976653A202575
:10031000640A0044454255473A2064697361626C3F
:1003200065642E0A0044454255473A20656E616275
:100330006C65642E0A000A002530313662003A20CE
:100340000025303258000A722F63203031323334A6
:1003500035363738394142434445460A00313A0977
:1003600064656C6179282A31306D73293A202575CE
:100370000A323A09696E74657276616C286D732968
:100380003A2025750A333A096D61785F73706565A7
:10039000643A2025750A343A0974696D655F746F93
:1003A0005F6D61783A2025750A353A097768656589
:1003B0006C5F6D61785F73706565643A2025750ABE
:1003C000363A09776865656C5F74696D655F746F4F
:1003D0005F6D61783A2025750A00703A097072697C
:1003E0006E742076616C7565730A643A097365747E
:1003F0002064656661756C74730A75703A092B31F7
:100400000A646E3A092D310A6C743A092B31300AAC
:1004100072743A092D31300A4553432F713A0971EC
:100420007569740A0A7370656564203D2064656CA3
:100430007461202A206D61785F7370656564202A7D
:100440002028726570656174202F2074696D655F66
:10045000746F5F6D6178290A7768657265206465DD
:100460006C74613A20637572736F723D25642C2041
:10047000776865656C3D25640A536565206874740A
:10048000703A2F2F656E2E77696B697065646961AC
:100490002E6F72672F77696B692F4D6F7573655F6C
:1004A0006B6579730A004D3E20004D25753A257322
:1004B0003E20003F0A003D2025750A003F0A0064E7
:1004C000656661756C74730A0025750A003F0A0041
:1004D0000A092D2056616C756573202D0A00710A7A
:1004E000000A092D204D6F7573656B6579202D0A03
:1004F000003F00433E20004C25640A000A092D20DD
:10050000537461747573202D0A686F73745F6B6523
:1005100079626F6172645F6C65647328293A202583
:100520003032580A6B6579626F6172645F70726F06
:10053000746F636F6C3A20253032580A6B657962AC
:100540006F6172645F69646C653A20253032580AC5
:100550006B65796D61705F636F6E6669672E6E6B38
:10056000726F3A20253032580A74696D65725F7275
:10057000656164333228293A202530386C580A00E6
:100580002573000A092D20436F6E736F6C65202D53
:100590000A4553432F713A09717569740A6D3A0916
:1005A0006D6F7573656B65790A000A092D204D61C1
:1005B000676963202D0A443A094465627567204DD6
:1005C00065737361676520546F67676C650A583A95
:1005D000094D6174726978204465627567204D6FBA
:1005E000646520546F67676C65202D2053686F77B2
:1005F000206B65797072657373657320696E206D09
:10060000617472697820677269640A4B3A094B65B4
:1006100079626F61726420446562756720546F6708
:10062000676C65202D2053686F77206B6579707239
:10063000657373207265706F72740A4D3A09446570
:10064000627567204D6F75736520546F67676C65C1
:100650000A563A0956657273696F6E0A533A09531E
:1006600074617475730A433A0941637469766174FD
:100670006520436F6E736F6C65204D6F64650A462D
:10068000312D4631303A0953776974636820746FAD
:10069000204C6179657220302D3920284631302078
:1006A0003D204C30290A302D393A0953776974635B
:1006B0006820746F204C6179657220302D390A47AB
:1006C000524156453A0953776974636820746F2024
:1006D0004C6179657220302028616C7465726E619E
:1006E0007465290A423A094A756D7020746F204278
:1006F0006F6F746C6F616465720A4553433A094ABF
:10070000756D7020746F20426F6F746C6F616465DB
:10071000722028616C7465726E617465290A453AAD
:10072000095072696E7420454550524F4D205365F3
:100730007474696E67730A4241434B535041434599
:100740003A09436C65617220454550524F4D0A4E3F
:100750003A094E4B524F20546F67676C650A006B25
:1007600065796D61705F636F6E6669672E72617720
:100770003A20253032580A2E737761705F636F6EAE
:1007800074726F6C5F636170736C6F636B3A20257A
:10079000750A2E636170736C6F636B5F746F5F6358
:1007A0006F6E74726F6C3A2025750A2E73776170C4
:1007B0005F6C63746C5F6C6775693A2025750A2EEF
:1007C000737761705F7263746C5F726775693A20EA
:1007D00025750A2E737761705F6C616C745F6C674E
:1007E00075693A2025750A2E737761705F72616CA6
:1007F000745F726775693A2025750A2E6E6F5F67A0
:1008000075693A2025750A2E737761705F6772618A
:1008100076655F6573633A2025750A2E737761707C
:100820005F6261636B736C6173685F6261636B735A
:10083000706163653A2025750A2E6E6B726F3A20DF
:1008400025750A2E737761705F6573636170655FEC
:10085000636170736C6F636B3A2025750A00646581
:100860006275675F636F6E6669672E7261773A20A3
:10087000253032580A2E656E61626C653A20257506
:100880000A2E6D61747269783A2025750A2E6B659F
:1008900079626F6172643A2025750A2E6D6F7573E7
:1008A000653A2025750A006565636F6E6669673A6B
:1008B0000A64656661756C745F6C617965723A2073
:1008C000256C750A003F004E4B524F3A206F66660A
:1008D0000A004E4B524F3A206F6E0A000A6D6F7538
:1008E00073653A206F66660A000A6D6F7573653A24
:1008F000206F6E0A000A6B6579626F6172643A203C
:100900006F66660A000A6B6579626F6172643A20ED
:100910006F6E0A000A6D61747269783A206F6666BC
:100920000A000A6D61747269783A206F6E0A000AD3
:1009300064656275673A206F66660A000A646562DC
:1009400075673A206F6E0A000A0A4A756D70696E03
:100950006720746F20626F6F746C6F616465722EB4
:100960002E2E2000433E2000436C656172696E6745
:1009700020454550524F4D0A00290A002575002F89
:10098000002575005D2800256400200025640020F6
:100990000025640020002564007C002530325800CA
:1009A0006D6F7573656B6579205B62746E7C782002
:1009B00079207620685D287265702F61636C293A12
:1009C000205B000A002530325820006E6B726F5F8A
:1009D0007265706F72743A2025303258207C200086
:1009E0000A002530325820006B6579626F617264AD
:1009F0005F7265706F72743A2025303258207C2007
:100A00000064656C5F6B65795F6269743A2063614D
:100A10006E27742064656C3A20253032580A0061D4
:100A200064645F6B65795F6269743A2063616E2705
:100A300074206164643A20253032580A007375735B
:100A400070656E64696E67206B6579626F61726450
:100A50000D0A005B575D005B535D005B525D005B00
:100A6000445D005B435D001E035200650064006F3F
:100A7000007800200057006900720065006C006576
:100A8000007300730000001E034D006100740074C9
:100A900000690061002000440061006C00200042F9
:100AA0000065006E000000040309040902540003FD
:100AB0000100A0FA0904000001030101000921114D
:100AC0000100012244000705810308000109040117
:100AD00000010300000009211101000122B60007F6
:100AE000058203200001090402000103000000093F
:100AF00021110100012215000705830320000112C6
:100B000001000200000008444D575201000102009C
:100B1000010631FF0974A1010975150026FF009532
:100B20002075088102C005010902A10185020901A1
:100B3000A10005091901290815002501950875016D
:100B400081020501093009311581257F950275085B
:100B5000810609381581257F950175088106050CE8
:100B60000A38021581257F950175088106C0C005E8
:100B7000010980A101850319012AB700150126B7D3
:100B800000950175108100C0050C0901A1018504C3
:100B900019012AA002150126A002950175108100F5
:100BA000C005010906A1018506050719E029E71519
:100BB0000025019508750181020507190029EF1527
:100BC00000250195F0750181020508190129059597
:100BD0000575019102950175039101C00501090692
:100BE000A101050719E029E7150025019508750100
:100BF00081029501750881010507190029FF15007B
:100C000026FF0095067508810005081901290515BC
:100C1000002501950575019102950175039101C0AB
:100C200011241FBECFEFDAE0DEBFCDBF12E0A0E09F
:100C3000B1E0EAE8F5E502C005900D92AE3CB107DF
:100C4000D9F725E0AEECB2E001C01D92AE34B20798
:100C5000E1F70E94B8150C94322AD2C9FF93EF93A2
:100C6000E091CE02F091CF02309709F00995EF9113
:100C7000FF910895FC018591803011F0EFDFFBCFEB
:100C80000895FF27E0E230E247FF0CC0419597FF4F
:100C900009C0EDE26095709580959095611D711D7C
:100CA000811D911D27FF02C0219530E350E2AA2744
:100CB000660F771F881F991FAA1FA41710F0A41B87
:100CC00063955A95A9F7AA3008F0A95FA05DAF9384
:100CD000F395611571058105910541F7ED3211F428
:100CE000EF93F395F21718F43F93F395FBCF8F91A1
:100CF000B5DFFA95E1F70895E991F9918591803092
:100D000021F0853219F0AADFF9CF089520E0E894A8
:100D100055915532C1F3503311F4689455915A33BB
:100D200048F4505390F3220F022E220F220F200D71
:100D3000250FF4CF0EF4219589919991533619F32B
:100D4000533729F1533559F1BC0188279927E89485
:100D50005C3621F48991999168945591543639F40F
:100D600046EF7EF077FF0DC08FEF9FEF0AC055373B
:100D70004AE039F0583540E121F0523642E009F0BE
:100D80000895FF93EF937DDFEF91FF91B7CFFF932E
:100D9000EF93FC0181918030B9F360DFFBCFFF93CB
:100DA000EF9368DFF1CFDF93CF93CDB7DEB7259612
:100DB000A3DFCF91DF91089560E472E48FE090E0CB
:100DC0000C949921ABE0B0E0E8EEF6E00C94A12998
:100DD000982E892E83E70E94BF218E010F5F1F4F3F
:100DE000F8018BE011928A95E9F778015E018CE0B9
:100DF000A80EB11C6801612C712C23010E94EC210A
:100E00008115A9F180E1481687E258066104710452
:100E1000D8F50E94D821F60181936F01EA15FB05F0
:100E200069F78B85803E91F5E92DF82D065F1F4F00
:100E300080E0D70111962C9190E8299F9001112410
:100E40009E91292B4191519191E04217530709F44A
:100E500090E0892BDF013E932E9392E0E90EF11C86
:100E60000E151F0531F72B96E0E10C94BD298FEF8D
:100E7000481A580A680A780A81E1481687E2580633
:100E80006104710408F4BACF80E0C5CF80E0EBCFF5
:100E9000509A519A849A859A589A599A8C9A8D9A0E
:100EA00008950E940515F4CF8430C8F46530B8F475
:100EB0004E30A8F450E09EE0699F400D511D112472
:100EC00096E4899F400D511D1124FA01EE0FFF1F7A
:100ED000E455FF4F85919591282F822F089521E0A9
:100EE00090E0FBCFE1CF089581E0089581E008957F
:100EF000FBCF089581E0089581E00895FDCF089526
:100F000008950895FDCF089508950895A6E0B0E0EE
:100F1000ECE8F7E00C94AE2949835A839E83309124
:100F2000D50289819A81311117C03E81311589F02E
:100F3000211579F041D5182F682F89819A811BD509
:100F400069817A81812F0E944B132696E3E00C94ED
:100F5000CA2922D5182FF4CF2FD569817A81F3CFF2
:100F6000FC01262F408151816281738184819581AA
:100F7000CDCFCF93DF93EC0161E0F2DFBE01B6DFAE
:100F8000811529F061E0CE01EBDFBE01B1DFDF9119
:100F9000CF9108950F931F93CF93DF93EC0160E0FF
:100FA000DFDF8C01BE01ADDFBE01C801ABDFDF9129
:100FB000CF911F910F9108950F931F93CF93DF93BC
:100FC000EC0161E0CDDF8C01BE0194DF811106C030
:100FD00080E0DF91CF911F910F910895BE01C8016C
:100FE0008DDF8115A9F3BE01C8010E947B1D81150B
:100FF00079F3BE01C8010E945419811549F3BE015D
:10100000C8010E942B19811519F3BE01C8010E9465
:101010004C148115E9F2BE01C8010E945E148115CD
:10102000B9F2BE01C8010E947814D3CF21E030E0AC
:1010300002C0220F331F8A95E2F7C901D7C3CF93AD
:10104000C82F81E090E00C2E02C0880F991F0A94EF
:10105000E2F70E9466118C2FE9DFCF91089581E0BD
:10106000089581E00895FBCF0895CF93C82F6DD3E5
:101070008C2FF7DF8C2FF7DF8FEF94E32CE081507C
:1010800090402040E1F700C00000CF91089581E03A
:10109000ECDF0C947D2180E0E8DF0C948E2134DFBE
:1010A0000E947B2034C035D030DF0C947F208295A5
:1010B000982F990F990F9C7C869586958373982B12
:1010C000892F880F8A7A96959575892B08950F93A5
:1010D0001F93CF93C92FEBDF082F8C2FE8DF902FC2
:1010E000CF911F910F91089581E008950895CF93B6
:1010F000DF93D82FF9DFC82F811511F08D2FF6DF80
:101100008C2FDF91CF9108950895F1CF089580E05D
:10111000FCCF0E94C91DF9CFCF930E94C91DC82FD3
:101120008091D0028C17F1F0C093D0020E944D2123
:101130006093D1027093D2028093D3029093D40231
:101140008091A2038570853059F41F92CF938CED66
:1011500092E09F938F9327DE0F900F900F900F9048
:101160008C2FD3DFCF910895ADE0B0E0EAEBF8E04B
:101170000C94AD29488759876A877B878C879D8720
:1011800091114BD71F8226E0FE013896CE010196C1
:10119000DC0101900D922A95E1F720912805182F86
:1011A000092F22FF09C0FBD6811519F082E00E94A9
:1011B000F110DCD6811170D78D8181110CC029818D
:1011C0003A814B815C816D817E818F814ED62D96D7
:1011D000E4E00C94C929812F902FCBDE8111EFCF51
:1011E000F6CFFC012481213019F48081918117C44C
:1011F0000895611521F00E94AF1A0C94641B0E949F
:10120000EF1AFBCFCF93C82F8115A9F08450813AF4
:10121000A0F48C2F0E94D21881110DC08C2F0E9437
:10122000051F811521F08C2F0E94C41FACD78C2F75
:101230000E94AD1FA8D7CF9108958C2F805E883073
:1012400048F481E0C1FD84E0C0FD880FC2FD8295B5
:10125000C5D6F0CF8C2F855A833030F48C2F845232
:10126000990B0E94911EE7CFEC2FE85AEB3150F416
:10127000F0E0EE0FFF1FE65EFE4F808191810E943D
:10128000B81ED9CF8C2F8D5C8331A8F661E08C2FEE
:10129000B0DFD1CF811559F1982F9450913A18F4BD
:1012A0000E94C41F70C7982F905E983050F4982FFA
:1012B00081E091FD84E090FD880F92FD829594D6A7
:1012C000F1CF982F955A933020F480E090E00C9461
:1012D000911E982F985A9B3120F480E090E00C9456
:1012E000B81E982F9D5C933110F460E082CF089572
:1012F0001F93CF93DF93182FEB0184DF209731F4F6
:10130000812FC8DFDF91CF911F9108958FE99FE072
:101310000197F1F700C000002197F0CF60E570E081
:10132000893311F060E070E0E3CF811511F056D6FB
:101330002AC70895811511F057D625C70895A0E052
:10134000B0E0E5EAF9E00C94A9296C01D62FC72F8B
:10135000FC011581068102950F7035D6E82E8115A6
:10136000E9F0E12E1115D1F08C2F807F803461F0EF
:101370008D2F805E8830E0F08C2F807E803221F4CB
:10138000D230B0F00115A1F08091280582FF10C085
:1013900082E027D718D691E08927E82EEC2FE29536
:1013A000EF70C03C78F5F0E0EC5CF54D0C949929B9
:1013B000E12CF4CF0C2F0F70C03110F00295007F9C
:1013C000111581F0011549F08D2F805E883010F0E5
:1013D000D11105C0802F02D6D6D68D2F40C0802FC8
:1013E0000ED6FACF8D2F56DF011561F08D2F805E5E
:1013F000883010F0D11103C0802FF6D502C0802FA5
:1014000004D6C1D6E11409F4B3C0C5D580FDB0C07F
:10141000F6011582BAD51AD2C60168D1B6D524D242
:10142000A7C08C2F8F70F82EC07FC03219F0F294B5
:1014300080EFF822D13038F079F1111509F438C075
:101440000115C9F0CACF8091280582FD10C0111581
:1014500041F0F11419F08F2DC1D595D680E0D2DE80
:10146000D1CF80E017DFF11469F28F2DC6CF1115AF
:1014700051F0013018F48F2D58DFC4CF09F0C2CFDE
:101480008F2DDFD5BFCF0111BDCF8F2D53DF8F2D16
:10149000EED58F2DC8D5B6CF111521F0063008F046
:1014A000B1CFE9CF053008F0ADCF8F2D43DFAACF04
:1014B0000115D9F3D93349F48FEF97EE23E081502A
:1014C00090402040E1F700C000008D2FE3DE9ACF6E
:1014D0008C2F869586958370813060F009F092CFCD
:1014E0008D2F9C2F9370111102C080E090E00E941C
:1014F000B81E88CF8D2F9C2F9370111102C080E0F1
:1015000090E00E94911E7ECF612F8D2F72DE7ACFE8
:101510008C2F8370C1F5111128C04D2F429546952F
:101520004770440F440F2D2F2F7030E0042E02C05F
:10153000220F331F0A94E2F780E090E0D4FF09C045
:101540008FE090E002C0880F991F4A95E2F78095DE
:101550009095C695C695C370822B932BC23079F0B7
:10156000C33079F0C13049F04AD10E94C91DCDDDA8
:10157000CDB7DEB7E8E00C94C5293AD1F6CF46D115
:10158000F4CF34D1F2CF111559F1C0FFEECF4D2F6A
:10159000429546954770440F440F2D2F2F7030E031
:1015A000042E02C0220F331F0A94E2F780E090E07D
:1015B000D4FF09C08FE090E002C0880F991F4A95C0
:1015C000E2F780959095C695C695C370822B932BB4
:1015D000C23061F0C33061F0C13031F06AD1C5CFA3
:1015E000823008F4C2CFD3CF5DD1BFCF69D1BDCF98
:1015F0001AD1BBCFCF70111529F08C2F27D18D2F89
:1016000094DEB3CF8D2F96DE8C2F2ED1AECFD23F6E
:1016100031F168F4D03FC1F0D13F89F0111509F4E0
:101620003EC0011509F438C08D2FECDD9ECFD33FAD
:10163000E1F0D43F99F78091280582FD1EC08C2FE0
:101640008F71111511F30FC0111539F0053008F025
:101650008CCF8C2F8F7118D188CF0630F8CF8C2F7C
:101660008F711111D2CFF2D080CF111521F08C2FB4
:101670008F71E3D07ACFDED078CF111529F063E0F7
:101680008C2F8F718DD571CF81E0ABD5023008F4EE
:101690006CCF82E0A6D569CF8C2F8F71E4CF011576
:1016A00071F0D93349F48FEF97EE23E081509040E9
:1016B0002040E1F700C000008D2FECDD56CF8C2FCD
:1016C0008F71A3CF0F931F93CF93DF93EC016881AA
:1016D00079818D81ADD18C01FAD087D0B801CE014E
:1016E0002EDEDF91CF911F910F910895CF93DF935D
:1016F000EC018C81811581F0CE015EDC81110FC07F
:1017000062D4811549F08D81811531F080912805D1
:1017100082FF02C082E065D5DF91CF910895CE01AE
:10172000D1DFCE0137DCF8CF80E090E00E94911E3F
:1017300080E090E00E94B81E70D425D50E941C1C49
:101740000C94641B0E94DB1FEFCF56D4FBCF282FD5
:1017500092959F70963099F060F4925F9F709230EE
:1017600030F4203FB1F038F481E0283E38F080E0DA
:1017700008959A5FF3CF81E0243FC9F7089591E07F
:10178000813F09F090E081E0283E08F080E0892B5D
:10179000089581E00895FC012481211521F08081C4
:1017A00091813DD1D4CF80E00895A6E0B0E0EBED8B
:1017B000FBE00C94AF292696E2E00C94CB29A7E03D
:1017C000B0E0E5EEFBE00C94AF292796E2E00C9444
:1017D000CB290895FECF0895FDCF0895FADFFCDFF1
:1017E0008093FC029093FD0208950895F7CF089529
:1017F0002091FC023091FD02822B932BEFCF2091A0
:10180000FC023091FD0282239323E8CF2091FC0259
:101810003091FD0282279327E1CFDBCF0895FDCFE2
:101820000895D7CF0895FDDFFADF8093FA029093F1
:10183000FB02089580E090E0F6CF21E030E002C0A6
:10184000220F331F8A95E2F7C901EDCF21E030E086
:1018500002C0220F331F8A95E2F78091FA0290911D
:10186000FB02822B932BDFCF21E030E002C0220F5E
:10187000331F8A95E2F7209530958091FA02909176
:10188000FB0282239323CFCF21E030E002C0220F5E
:10189000331F8A95E2F78091FA029091FB0282272A
:1018A0009327C1CF2091FA023091FB02822B932B18
:1018B000BACF2091FA023091FB0282239323B3CF57
:1018C0002091FA023091FB0282279327ACCF089532
:1018D000CF93C1E061FDC4E060FDCC0F62FDC29515
:1018E00093E0769567959A95E1F7660F771F660FF7
:1018F000771F460F571FFA0140E050E090E06191DA
:10190000DF019C01042E02C0369527950A94E2F768
:101910002695220B26272C2326272E934F5F5F4FD9
:101920004430510561F7CF910895A82FA77023E0A7
:10193000969587952A95E1F7880F991F880F991F2B
:10194000680F791FFB0140E050E080E0219130E01A
:101950000A2E02C0369527950A94E2F72170042ECC
:1019600001C0220F0A94EAF7822B4F5F5F4F443089
:10197000510561F70895262F953068F48E3058F49C
:10198000682F70E08EE0989F600D711D112446ED68
:1019900052E0822F9DCF0895292F953058F48E3034
:1019A00048F490E066ED72E03EE0239F800D911DCB
:1019B0001124BBCF80E00895CF92DF92FF920F9366
:1019C0001F93CF93DF936C010091FA021091FB02F9
:1019D0008091FC029091FD02082B192BCFE0D0E002
:1019E00081E090E00C2E02C0880F991F0A94E2F764
:1019F00080239123892B61F4219790F7F12C8F2D6F
:101A0000DF91CF911F910F91FF90DF90CF900895BC
:101A1000FC2EB6018C2F4AD6019771F3F0CFCF93ED
:101A2000DF93EC01C9DFBE0141D6DF91CF9108956C
:101A30001F93CF93DF93EB019091D502911531F075
:101A4000CB01EDDFDF91CF911F910895811551F00A
:101A5000CB01B2DF182F682FCE018DDFBE01812FA1
:101A600025D6F0CFCB0198DF182FF8CF0F931F9317
:101A70000091FE028091FF02801303C01F910F911D
:101A8000089587E0089FF0011124E050FD4F208168
:101A900031814281538164817581868190DE0F5F3F
:101AA0001F4F0770E7CF20913803309139034091E1
:101AB0003A0350913B0360913C0370913D03809148
:101AC0003E037DCE80913E03803170F480913D03D2
:101AD000811551F0E091FE022091FF02309139030F
:101AE000409138032E1301C00895BF0187E0E89F9D
:101AF000F0011124DF01A050BD4F14968C91149772
:101B0000811549F111968C911197831324C08C9102
:101B1000841321C015968C91159781111CC01296C3
:101B20008D919D91A0913A03B0913B038A1B9B0B31
:101B3000883C910580F480913E038F708061809392
:101B40003E03EA5FFC4F80818F708061808388E371
:101B500093E0CCDD8BCF6F5F7F4FFB01E770C2CF8F
:101B6000E091FE029091FF02E91302C080E0089527
:101B70009F0157E0E59FF0011124E050FD4F518196
:101B8000561306C05081581303C05581541305C025
:101B90002F5F3F4FF901E770E7CF81E008958F9203
:101BA0009F92AF92BF92DF92EF92FF920F931F939B
:101BB000CF93DF93CDB7DEB72D970FB6F894DEBF86
:101BC0000FBECDBF8C0186E0F801DE0118960190B2
:101BD0000D928A95E1F7F801F580848198E3892ECA
:101BE00093E0992E90913C03911117C0811509F44F
:101BF000EFC0F11409F42EC1C801CDDD811509F43F
:101C000029C187E0F801D40101900D928A95E1F78E
:101C1000C401E7DA57DF47DFDBC0E080A280B38092
:101C2000D0903D0320913A0330913B03A501421B24
:101C3000530BD11409F4CFC0483C510508F09EC0A5
:101C4000811509F4C5C090913903918080913E03BC
:101C5000803108F065C0991226C0909138039E111A
:101C600022C0F11057C08F70806180933E031BDF4C
:101C700088E393E03BDD80913E03F8018683F12CFD
:101C80008F2D2D960FB6F894DEBF0FBECDBFDF911E
:101C9000CF911F910F91FF90EF90DF90BF90AF9089
:101CA0009F908F900895F11035C040E0692D8E2DE2
:101CB00057DF40E0692D8E2D53DFF82E8111DFCFE5
:101CC00088859985ACDE292F22952F70903450F4A9
:101CD0009F70223078F0911591F0F8019681903143
:101CE00070F4CECF2A5F2F70223070F0C801FEDC76
:101CF000FD2CC6CF911519F0811509F4C1CF805E76
:101D0000883008F4BDCFF2CF803F08F4B9CF815FAF
:101D10008330F7CF80913E03816080933E03AFCF45
:101D2000991207C0909138039E1103C0F11409F471
:101D300073C0C80130DD811509F48CC0F11409F4B9
:101D400089C080913E03803280F020913803309129
:101D5000390329833A83AB82BC8290913C039D83F3
:101D60001E828F83CE010196C1DC87E0F801A8E3D3
:101D7000B3E001900D928A95E1F74CCF90913E032C
:101D8000903188F4488559856A857B858C859D8549
:101D90000CDD88E393E0AADCF40187E011928A95D8
:101DA000E9F781DE6CCF811599F0209139038181AB
:101DB0002813BFCF809138038E11BBCFF110B9CF5C
:101DC0009683C80193DCF40187E011928A95E9F7C4
:101DD000FF24F39455CF483C510508F03EC08115CF
:101DE000B9F3F114B9F1909139038181981329C0A5
:101DF000809138038E1125C080913E0380FD18C06C
:101E00008031B0F08683807F803F39F08681982FC3
:101E1000907F905F8F70892B8683C80167DC87E095
:101E2000F801A8E3B3E001900D928A95E1F7F3CEB3
:101E300087E0F801A8E3B3E001900D928A95E1F7FD
:101E4000C7CFC801A8DC811190CF80913E0381608B
:101E500080933E03C8014ADCBBCF488559856A851B
:101E60007B858C859D85A1DC97CFAEE0B0E0EBE370
:101E7000FFE00C94AE29288739874A875B876C87F7
:101E80007D878E87CE0108968ADE6C85811599F054
:101E9000611539F0288539854A855B857D858E8574
:101EA0008EDC8091FE029091FF0289133DC02E9638
:101EB000E3E00C94CA2987E09E01285F3F4FF901B7
:101EC00027503109D90101900D928A95E1F76115EA
:101ED00041F3A091FF028A2F90E08395877090E0F4
:101EE000AC012091FE022417150691F097E09A9F0D
:101EF000D0011124A050BD4F9E012F5F3F4FF9012B
:101F000001900D929A95E1F74093FF02AFDDC9CFA2
:101F10001CDC1092FF021092FE02E8E3F3E087E07F
:101F200011928A95E9F7BDCF17E0189FC0011124DF
:101F300080509D4F34DE811509F4B9CFE091FE0247
:101F40001E9FF0011124E050FD4F2081318142811C
:101F5000538164817581868132DC8091FE0290918B
:101F6000FF02019687708093FE029BCF0E94412161
:101F700020916A0330916B03821B930B9C0181E0DB
:101F8000243F314008F480E00895809169038695EC
:101F900086958695089580916903877008950E94BB
:101FA00041212091670330916803821B930B843F8A
:101FB000914038F080916903002482FF0394802DC2
:101FC000089580E0089590916903977081E09111E0
:101FD00001C080E008958091970308959091970340
:101FE000982B9093970308958095982F809197034D
:101FF00089238093970308951092970308959091F1
:102000009603982B9093960308958095982F80912E
:10201000960389238093960308951092960308955A
:102020000895FECF089590916C03292F282329F05D
:102030008095892380936C03F4CF08950895FECF93
:102040000895CF93C82F80916D038C238C1769F06E
:102050000E94412180936A0390936B0380916D03EA
:102060008C2B80936D038C2FEADFCF910895909194
:102070006D03292F282379F08095892380936D03A0
:1020800090E081110E94412180936A0390936B0339
:1020900080916D03D4CF089580916D03811541F037
:1020A00010926D0310926A0310926B0380E0C7CF09
:1020B0000895CF93C091970380919603C82B809188
:1020C0006D038115B9F052DF811569F08091A2038B
:1020D00080FF08C08CEE92E09F938F930E94D306FE
:1020E0000F900F90D9DF80916D03C82B0E94DF1EE7
:1020F0008111D2DF8C2FCF910895CF93DF93C091C0
:102100000201D0910301D5DF8883C0910201D091F3
:10211000030148E050E06FE573E0CE010E94EA2938
:10212000892B59F088E0FE01AFE5B3E001900D92F4
:102130008A95E1F7CE010E94D81DDF91CF910895D5
:10214000CF93DF93C0910001D0910101B2DF898369
:10215000C0910001D091010140E250E06FE373E0D3
:10216000CE010E94EA29892B59F080E2FE01AFE3FB
:10217000B3E001900D928A95E1F7CE010E94281EEE
:10218000DF91CF9108950E94C21D811529F08091A1
:10219000270587FF01C0D4CFB0CF0895FECF0895A3
:1021A0009091280592FF14C0982F990F990F990FBD
:1021B000962B909369034ADB0E9441218093670329
:1021C0009093680380916903869586958695E6CFFE
:1021D0003DCB10926903109267031092680380E070
:1021E000DDCF909169038095892380936903282F1F
:1021F000277059F4891749F09091280592FF05C07E
:1022000086958695869530DBE4CF0895CF93C82FC9
:102210008091280582FB992790F99C17C9F0C0FB93
:1022200082F98093280587E295E054D082E0D9DFD7
:102230008091A20380FF0CC01F92CF938EEF92E09B
:102240009F938F930E94D3060F900F900F900F9043
:10225000CF91089580912805002482FF0394802D5A
:10226000D5CF81E0D3CF80E0D1CF80E090E0BC013A
:10227000C1C380E090E0BC01B7D3F7CFA3E0B0E0EA
:10228000E4E4F1E10C94AF2968D373D31B82CE014F
:10229000039686D381E090E08093FC021092FD02C9
:1022A0008BD3198284E18A83CE01019696D3E1DF34
:1022B0002396E2E00C94CB29E1CF089560C3089502
:1022C0004DC3089562C3089571C3089575C30895F9
:1022D00078C3089582C3089593C30895A6E0B0E03B
:1022E000E4E7F1E10C94AD290E9441218C01809139
:1022F0009803909199038017910779F019821A82B7
:102300000E944121BC0149815A8180E090E00E94F5
:10231000B40800939803109399032696E4E00C9474
:10232000C9290E944D2160939E0370939F0380935F
:10233000A0039093A10360939A0370939B038093EF
:102340009C0390939D03089508950895FDCF0895EB
:102350000895FEDFFBCF0895FECF08950895FEDFB8
:10236000FBCF83EE93E217D4F0DFF3CF81E0089543
:1023700081E00895FBCF0895089508950895FCDF46
:10238000FCDFFCCF9DDF811101C096DF82EA93E084
:1023900099DF87E295E09CDF1BD496DF27DA8091F6
:1023A000FA029091FB023BCA0E94382183D3EADFF4
:1023B0000E94C01D0E948408D2CFA6E0B0E0E3EEE8
:1023C000F1E10C94A329D4DF81110BC087DF0E94B7
:1023D000C11D0E943D1C0E948C082696EEE00C94C4
:1023E000BF2979D32DE1822E25E0922E740110E0D1
:1023F000F701C080D180812F0CD31F5F153009F405
:1024000050C022E0E20EF11CC816D90689F3809173
:10241000A20381FD07D3AEDF682E10E0812FF9D231
:102420007C01F401A190B1904F018A159B0599F1AF
:10243000A826BF2400E091E0C92ED12CC5018C2133
:102440009D21892B01F177247394C7018C219D2153
:10245000892B09F4712C611489F0602F812F0E945F
:10246000A32081110BC009831A830E944121BC0162
:1024700049815A8181E0972D0E94B408472D602F31
:10248000812F0E94BA200F5FCC0CDD1C0E30B1F6FC
:10249000F401F292E2921F5F153009F0BFCF41DFE5
:1024A00096CFC816D90609F0B2CF90CF0F931F93DD
:1024B000CF93DF93FDD0EC01D23508F050C0D0357A
:1024C00008F0C8C0C03ED10530F5CD3CD10508F0BC
:1024D0009DC0C83AD10578F4C53AD10508F093C03B
:1024E000C130D105B1F1CE010497813A910588F14F
:1024F000C0E0D0E02EC0CE01885A91094B97C0F7BA
:10250000C85AD0E0CC0FDD1FC05BDE4F0990D881E8
:10251000C02DD4641EC0D034A8F4D03208F0ADC0B1
:10252000C83ED105B0F0CE0191509F3108F78D2FF4
:1025300062D1082F8C2F90E0BBD0D02FDF71C82F35
:10254000D92B07C08C2F90E0B3D0DF70C82FD92BC8
:10255000D06ACE01DF91CF911F910F910895C038BD
:1025600082E5D807B8F5C03682E5D80708F056C02E
:10257000C03482E5D807C8F4C03282E5D80708F035
:1025800047C08C2F8695869520E2829FC00111243A
:10259000C37021E030E002C0220F331FCA95E2F77A
:1025A000E901C82BD92BDD68D4CF8C2F8695869571
:1025B000877020E2829FC0011124C37021E030E0C7
:1025C00002C0220F331FCA95E2F7E901C82BD92BAD
:1025D000DC68BFCFC03C82E5D80750F48C2F8F71E8
:1025E000C03AD24580F5982F84EF906AEC01B1CFC4
:1025F000CE01805C9245809708F07ACFDC2FDF71A6
:10260000C0EFD06AA6CFA497D064A3CFD065A1CFE6
:102610008C2F8F71D82FC1EFD06A9BCF8C2F8695CE
:102620008695877020E2829FC0011124C37021E04B
:1026300030E002C0220F331FCA95E2F7E901C82B30
:10264000D92BDA6886CFD7D0982F80E09F71EC0124
:10265000D0627FCF8C2F8F71CED053E0CC0FDD1F97
:102660005A95E1F7DF70282F84FF04C090E1899F1D
:1026700090011124C22FD0696CCF8D2F8F71BBD0E8
:10268000082F8C2F90E014D0302F3F71282F392B3A
:102690003062E9015ECF462F753028F46E3018F4B1
:1026A000672F0C94720780E090E00895F4DFFECE6F
:1026B000803E9105D1F1C8F48133910509F481C0C0
:1026C00048F48932910509F471C08A32910509F400
:1026D0007FC0089589339105E1F082389105C9F0F2
:1026E0008533910509F45DC00895843E9105D1F1CB
:1026F00048F4823E910531F1833E910541F181EE2E
:1027000090E00895863E9105C1F1873E9105F1F173
:10271000089520912705237009F064C020912805B1
:1027200023FF14C089E290E008952091270520FD41
:1027300045C03091280530FF09C024FD24C083EE38
:1027400090E008952091270522FDF7CF089520916C
:10275000270522FD44C03091280530FD43C024FFE9
:10276000F5CF11C02091280521FFF0CF80912705DA
:1027700084FD09C087EE90E008952091270523FF8E
:10278000E5CF24FFF7CF80E090E008952091270562
:1027900023FD2BC03091280531FFE1CF84EE90E07E
:1027A00008952091270525FFD1CFBCCF2091270583
:1027B00025FD1EC02091280523FFC8CF89E390E0A6
:1027C00008952091270526FFC1CF8AE290E0089561
:1027D0002091270526FFBACF81E390E0089582EE8D
:1027E00090E0089580EE90E0089586EE90E00895E0
:1027F00085E390E008959091270592FF10C041E095
:10280000282F2471243009F040E031E0282F28716E
:10281000283009F030E0431711F02CE0822793FFB5
:1028200010C041E0282F2471243109F040E031E04C
:10283000282F2871283109F030E0431711F02CE0DF
:1028400082273091280530FF10C051E0282F2171D8
:10285000213009F050E041E0282F2871283009F09C
:1028600040E0541711F029E0822731FF10C041E009
:10287000282F2171213109F040E031E0282F287103
:10288000283109F030E0431711F029E0822794FF46
:1028900002C083FD877E0895CF939C01205E324560
:1028A000C1E02032310538F4FB01C581C11103C0FC
:1028B0008F710E941F088C2FCF9108959C01FB01FE
:1028C0008581811599F02B359CE7390769F02C3506
:1028D0009CE7390721F02A353C4721F00895BADCFE
:1028E00080E00895BEDCFCCFBEDCFACF81E0089525
:1028F000FB012581211579F182303CE79307A9F08E
:1029000048F481153CE7930761F081309C4731F032
:10291000822F089583309C47D9F7D0DC0E944B0862
:1029200002C00E94470820E0F3CF9091A203892FB4
:102930008E7F90FF81608093A20380FF09C085E2B3
:1029400093E09F938F930E94D3060F900F90EBCF4D
:1029500083E193E0F6CF21E0DBCF089580E090E0C3
:102960000E94FF299C0181E0233E3E4F09F080E058
:10297000089563EE7EEF80E090E00C941E2A6FEFE6
:102980007FEF80E090E00C941E2ACF93DF93EC0160
:1029900082E090E00E94F7298883DF91CF9108952B
:1029A000FC01608182E090E00C94042A83E090E0D6
:1029B0000E94F72990E00895682F83E090E00C943E
:1029C000042ACF93DF93EC0184E090E00E94FF297A
:1029D00088839983DF91CF910895FC016081718193
:1029E00084E090E00C941E2AAB01BC018FE090E0E3
:1029F0000C94162AAB01BC0183E190E00C94162ADA
:102A0000682F8EE090E00C94042A08950895FECF7C
:102A10000895E82FF0E0EE0FFF1FED5CFA4F808184
:102A200091810895A0E0B0E0E8E1F5E10C94A929D6
:102A300086E493E09F938F930E94D30683E3C82E8E
:102A400085E0D82E0F900F90E12CF12C08E313E0D5
:102A5000FF92EF9281E493E09F938F930E94D306BD
:102A60008EE393E09F938F930E94D306F6018191AA
:102A700091916F010E9467089F938F931F930F930B
:102A80000E94D30686E393E09F938F930E94D30620
:102A90008FEFE81AF80A8DB79EB70C960FB6F89428
:102AA0009EBF0FBE8DBF85E0E816F10489F6E8E011
:102AB0000C94C5290E94DC06E9E2F5E08AE0119257
:102AC0008A95E9F7E3E3F5E08AE011928A95E9F760
:102AD00012D00C945107CF9389E295E00E94E20650
:102AE000482F63E375E089E295E006D0C82F8FDFB9
:102AF0008C2FCF9108950895EF92FF920F931F931B
:102B0000CF93DF938C017B01C42F411579F081E0D5
:102B10008093A5030E9441218093A3039093A40373
:102B200080E0CDB7DEB7E6E00C94C729D091A503CD
:102B3000D115B1F38091A3039091A4030E94D220F8
:102B4000059770F34AE050E0B801C7010E94EA29F6
:102B5000892B41F08AE0F801D70101900D928A9506
:102B6000E1F7CD2F1092A5038C2FDBCF26CC089553
:102B70000E94DB200E944424F4DB0E945C2414DCCD
:102B80000E9465240E946824F1DF0E948A240E942A
:102B90008722F5DBF7CF8093CE029093CF02089582
:102BA0008DCB089580E035DF8170089594DF8FEF3D
:102BB00096E721E0815090402040E1F700C00000FE
:102BC0008ADFF0DF811519F0EBDF0C947D21089589
:102BD000EDCF0895A0E0B0E0E0EFF5E10C94AF296F
:102BE000809104011F928F93809105011F928F9312
:102BF000809108011F928F93809109011F928F93FA
:102C000080910A011F928F9380910B011F928F93E5
:102C10008DE593E09F938F930E94D3068DB79EB767
:102C20000E960FB6F8949EBF0FBE8DBFE2E00C94D7
:102C3000CB29CF93C82F1F928F9387EF94E09F9358
:102C40008F930E94D30681E090E002C0880F991F05
:102C5000CA95E2F70E94F60B0E94A50B0F900F9009
:102C60000F900F90CF910895A0E0B0E0EAE3F6E175
:102C70000C94AF29893209F470C010F5833109F43E
:102C800083C040F4873009F4DFC08B3051F18CEB06
:102C900094E0EEC0843109F460C0982F9E519A30C0
:102CA000B0F78D518093AA03843009F077C088E093
:102CB00091E08093A8039093A9038CEA91E093C0DC
:102CC000803509F4DAC030F4883359F08F34F9F6DE
:102CD0008AE0D4C0813509F4E7C08235C1F681E0CD
:102CE000CDC081EE94E09F938F930E94D30672DF54
:102CF0001F9281E08F931F9288E08F938AED93E07B
:102D00009F938F930E94D3068DB79EB708960FB6F8
:102D1000F8949EBF0FBE8DBF8091AA03811509F460
:102D2000CCC02091A6033091A7032115310511F4E1
:102D300026E831E03F932F931F928F938AEA94E025
:102D40009F938F930E94D3060F900F900F900F9038
:102D50000F900F90E2E00C94CB298EED94E09F93BE
:102D60008F930E94D3060F900F908091AA03811534
:102D700089F31092AA031092A8031092A90310924B
:102D8000A6031092A703C8CF80ED94E09F938F9382
:102D90000E94D3061FDF0F900F90BECF68F48230E1
:102DA000C1F18330C1F489E091E08093A80390934E
:102DB000A9038FE991E017C08530A1F18630D9F1E0
:102DC0001092AA038DEC94E09F938F930E94D306F8
:102DD0000F900F900CC08BE091E08093A80390932C
:102DE000A9038AE891E08093A6039093A7038091BA
:102DF000AA03811509F490CF1F928F9389EC94E078
:102E00009F938F930E94D3060F900F900F900F9077
:102E100083CF8AE091E08093A8039093A90383E98C
:102E200091E0E1CF85E091E08093A8039093A9031E
:102E30008BEB91E0D8CF84E091E08093A80390934E
:102E4000A9038EEC91E0CFCF81E080930B0184E168
:102E500080930A018AE0809309018EE18093080142
:102E600088E08093050188E2809304018FEB94E071
:102E70009F938F930E94D3068ECF86EFE091A80395
:102E8000F091A9033097B1F02081982F990F990BF9
:102E9000820F911D913054F497FD0AC080831F92D8
:102EA0008F9386EB94E0ACCF8FEFE8CF8FEFF6CF28
:102EB00080E0F4CF83EB94E0DBCF86EA94E09F934D
:102EC0008F930E94D3060F900F9044CFA3E0B0E001
:102ED000ECE6F7E10C94A829E82FE550EF3308F071
:102EE00053C1F0E0E05CF54D0C949929EDD91F92A7
:102EF0001F929F938F9387EA98E09F938F930E94EE
:102F0000D306CE010396DED98B8183FB882780F917
:102F10001F928F938B8182FB882780F91F928F935A
:102F20008B81869581701F928F938B8181701F9208
:102F30008F938B811F928F938EE598E09F938F9351
:102F40000E94D306CE010196C3D98A8183FB8827CC
:102F500080F91F928F93898187FB882780F91F92C0
:102F60008F93898186FB882780F91F928F938981AF
:102F700085FB882780F91F928F93898182958170C4
:102F80001F928F93898183FB882780F91F928F93EB
:102F9000898182FB882780F91F928F938A81869589
:102FA00081701F928F938A8181701F928F93898184
:102FB000869581701F928F93898181701F928F9364
:102FC0008A818F9389818F938FE597E09F938F9369
:102FD0000E94D3068DB79EB78C960FB6F8949EBF0D
:102FE0000FBE8DBF81E02396E9E00C94C42988E6EA
:102FF00099E09F938F930E94D3065ED90F900F9014
:10300000F1CF8AEA95E09F938F930E94D306F6CF83
:103010008091A203807F8093A20383E895E09F9331
:103020008F930E94D30684E699E09F938F930E942A
:10303000D30681E08093AB030F900F900F900F9019
:10304000D1CF88E499E09F938F930E94D3060E948A
:103050004708D4CF9091A203892F8E7F90FF816083
:103060008093A20380FF03C08CE399E0CCCF8FE272
:1030700099E09F938F930E94D3068091A203817F52
:103080008093A203BBCF9091A203892F8D7F91FFE4
:1030900082608093A20381FF0AC082E299E09F933D
:1030A0008F930E94D3068091A2038160E9CF84E1CF
:1030B00099E0A9CF9091A203892F8B7F92FF846022
:1030C0008093A20382FF03C085E099E0E8CF85EFFB
:1030D00098E099CF9091A203892F877F93FF886012
:1030E0008093A20383FF03C089EE98E0D8CF8CEDD4
:1030F00098E089CF83EE91E09F938F9380E895E0ED
:103100009F938F930E94D30697CF0E944D21E62E66
:10311000D72EC82EB92E1091270517FB112710F9AD
:10312000E5D7082FC7D7F82E34D5BF92CF92DF92BC
:10313000EF921F921F931F920F931F92FF921F9265
:103140008F938CEF94E09F938F930E94D3068DB75B
:103150009EB70E9642CF0E94A50B90912705892F0E
:1031600097FB87F980588093270587FF03C082ED7E
:1031700098E049CF87EC98E046CF80E05ADD32CF27
:103180008953FCCF8D51FACF85EC98E09F938F93B4
:103190000E94D3060F900F9080E025CF80E0089525
:1031A00080E00895CF93C82F8091AB03813091F0D8
:1031B000823009F448C081114AC00E94EB0F82326C
:1031C00009F047C08C2FEADF811102C08C2F7EDE10
:1031D000CF9108950E94EB0F8232A1F38C2FE0DF94
:1031E000811124C0C43121F168F4CB3079F0C031B1
:1031F00021F181EF94E09F938F930E94D3060F906B
:103200000F9018C0C932A1F0C83399F783E895E050
:103210009F938F930E94D30683EF94E09F938F93A5
:103220000E94D3060F900F900F900F9081E003C083
:103230001092AB0380E08170CBCF82E08093AB0330
:1032400088E312DDF3CF8C2F0FDD81E0C1CF109228
:10325000AB0380E0BDCFCF93DF93EB0186319C477A
:1032600009F50E94EB0F9D81911599F08A7A91E002
:10327000811101C090E09093AC03811541F085E38A
:103280006CD60E94C31080E0DF91CF91089589E24F
:10329000F7CF8091AC03811519F085E375D6F1CF96
:1032A00089E2FCCF81E0F0CFCF93DF93EC01FB010B
:1032B0008581811509F4CAC09E013057233231053A
:1032C00008F0AAC087E295E003D8FE01E150F0477C
:1032D000E232F10520F4E158F54D0C9499298091E2
:1032E000270581608093270590C08091280588601C
:1032F000809328058AC0809127058260F3CF809152
:1033000027058460EFCF809127058860EBCF8091FF
:1033100028058160EDCF809128058260E9CF8091FA
:1033200027058061DFCF809127058062DBCF809108
:1033300027058064D7CF0E94A50B80912705806860
:10334000D1CF809127058C60CDCF809128058360F7
:10335000CFCF809127058E7FC5CF80912805877FAD
:10336000C7CF809127058D7FBDCF809127058B7FAB
:10337000B9CF80912705877FB5CF809128058E7FB3
:10338000B7CF809128058D7FB3CF809127058F7EA1
:10339000A9CF809127058F7DA5CF809127058F7BB1
:1033A000A1CF0E94A50B809127058F779BCF80919D
:1033B0002705837F97CF809128058C7F99CF9091A7
:1033C0002705892F8B7F92FF8460877F92FF88601B
:1033D00089CF80912805982F909590FB80F990FBDC
:1033E00081F986CF90912705892F8F7B96FF806486
:1033F00079CF0E94A50B90912705892F97FB87F91C
:10340000805870CF81E00E946C1187E295E00E94A5
:103410006A110E94A50B80E0DF91CF91089580E0B2
:10342000F2CF90912705892F8F7E94FF80615ACF2C
:1034300090912705892F8E7F90FF816053CF9091C7
:103440002805892F877F93FF886052CF81E0E4CFE2
:10345000382F25EB3203C001112497FF04C0805898
:103460009109892F089580589F4FFBCF8091B30316
:1034700080FF0DC06091090170E0660F771F603812
:10348000710588F56115710581F1862F089581FF19
:1034900007C06091090184E0689FB0011124EFCF5B
:1034A00082FF04C06091090188E0F6CF9091B203D9
:1034B0009115B9F06091080180910901961728F0E3
:1034C00098E0899FB0011124DACF899FC0011124AF
:1034D00023E0880F991F2A95E1F770E00E94642984
:1034E000CECF68E0D2CF8FE7089581E00895809134
:1034F000B30380FF0CC06091050170E0759567957E
:10350000759567956115710541F1862F089581FFC5
:1035100006C06091050170E075956795F3CF6091E5
:10352000050182FD0BC09091B1039115A1F060914E
:10353000040180910501961738F0682F70E060381B
:10354000710500F38FE70895899FC001112470E091
:103550000E946429F4CF61E0D8CF81E00895E82F7C
:10356000ED5CE33198F5F0E0EF55F54D0C949929B9
:103570007DDF81958093B703089578DFFBCF76DFF9
:1035800081958093B603089571DFFBCFB0DF809300
:10359000B8030895ACDF8195FACFA9DF81958093B8
:1035A000B9030895A4DFFBCF815D990B21E001C031
:1035B000220F8A95EAF78091B503822B8093B50399
:1035C00008958091B30381608093B303089580913F
:1035D000B3038260F9CF8091B3038460F5CF40914B
:1035E000B6038D3C59F48091B70387FF0DC010924C
:1035F000B703411559F41092B20308C08E3C81F410
:103600008091B70318169CF3411581F08091B8039F
:103610009091B903892B09F056C01092B103089517
:103620008F3C41F447FFF0CF1092B6038091B7036F
:103630008115E0CF803D19F41416B4F3E5CF9091D5
:10364000B803893D29F41916FCF61092B803DCCFB3
:103650008A3D19F497FFD8CFF8CF9091B9038B3DED
:1036600029F497FFD1CF1092B903CECF8C3D19F436
:103670001916CCF3C9CF982F915D983078F4815DFD
:10368000990B21E001C0220F8A95EAF7822F8095DD
:103690009091B50389238093B503B6CF8D3D31F466
:1036A0008091B3038E7F8093B303AECF8E3D21F420
:1036B0008091B3038D7FF7CF8F3D09F0A5CF809127
:1036C000B3038B7FF0CF0895A0E0B0E0EAE6FBE122
:1036D0000C94AF298091A20383FF92C080EA99E005
:1036E0009F938F930E94D3068091B5031F928F936F
:1036F0008BE999E09F938F930E94D30689E999E023
:103700009F938F930E94D3068091B603982F990FB1
:10371000990B9F938F9386E999E09F938F930E94D3
:10372000D30684E999E09F938F930E94D3068091FA
:10373000B703982F990F990B9F938F9381E999E085
:103740009F938F930E94D3068FE899E09F938F9366
:103750000E94D3068091B803982F990F990B9F93DD
:103760008F938CE899E09F938F930E94D3068AE809
:1037700099E09F938F930E94D3068091B903982F6D
:10378000990F990B9F938F9387E899E09F938F935D
:103790000E94D30684E899E09F938F930E94D306FA
:1037A0008DB79EB780960FB6F8949EBF0FBE8DBFA3
:1037B0008091B2031F928F9381E899E09F938F933A
:1037C0000E94D3068FE799E09F938F930E94D306C0
:1037D0008091B3031F928F938CE799E09F938F930F
:1037E0000E94D30689E799E09F938F930E94D306A6
:1037F0008DB79EB70C960FB6F8949EBF0FBE8DBFC7
:1038000040D59C019091B6038091B703982B21F08D
:103810002093AF033093B0039091B8038091B90324
:10382000982B21F02093AD033093AE0384EB93E00B
:1038300066D2E2E00C94CB29E4EBF3E086E011924F
:103840008A95E9F71092B2031092B1031092B30374
:103850000895FC01828181110EC0838181110BC00A
:103860008481811108C091E08581811101C090E0BF
:10387000892F8170089581E0FCCFA6E0B0E0E3E4F9
:10388000FCE10C94AC2986E0E4EBF3E09E012F5FB1
:103890003F4FD90101900D928A95E1F71092B6033E
:1038A0001092B7031092B8031092B9038B819C81D8
:1038B000892B022FF32E811581F08091AF03909117
:1038C000B00370D4AC019091B2039115A1F1809135
:1038D0000A018417150608F43BC08D819E81892B4F
:1038E00089F08091AD039091AE035CD4AC019091CE
:1038F000B103911509F45AC0809106018417150689
:1039000008F462C0602F7F2D84EB93E06CD38111AB
:1039100004C084EB93E09DDF8111D6DE86E0E02FCA
:10392000FF2DA4EBB3E001900D928A95E1F7269666
:10393000E5E00C94C82920910B018AE0289F9001B2
:1039400011242417350748F69F5F9093B20302C0F5
:103950009F3FD1F71B81111551F088DD91E01116C1
:103960000CF09FEF899F802D11248093B6031C815A
:10397000111551F07BDD91E011160CF09FEF899F3E
:10398000802D11248093B7038091B603811509F42B
:10399000A4CF1091B703111509F49FCF59DD80937F
:1039A000B603812F55DD8093B70397CF2091070190
:1039B0008AE0289F900111242417350708F0A2CF30
:1039C0009F5F9093B10302C09F3FD1F71D811115F6
:1039D00051F08DDD91E011160CF09FEF899F802D45
:1039E00011248093B8038E81182F811551F07FDD4B
:1039F00091E011160CF09FEF899F802D1124809388
:103A0000B9038091B803811509F47CCF9091B90373
:103A1000192F911509F476CF1BDD8093B803812F00
:103A200017DD8093B9036ECF0F931F93CF93DF936E
:103A3000C42FD22FFC0185818115C9F04093BC03AE
:103A400020D48093BA039093BB038C2F805E883080
:103A500048F481E0C1FD84E0C0FD880FC2FD82957D
:103A60000E949509DF91CF911F910F9108951091B8
:103A7000BC03141333C08091BA039091BB0392D35B
:103A8000883C910558F5CD2FC05E1D17C1F0812FE0
:103A9000805E883048F481E011FD84E010FD880FDD
:103AA00012FD82950E949A09C83048F481E0D1FD48
:103AB00084E0D0FD880FD2FD82950E949509802F69
:103AC0000E948E0981E0D1FD84E0D0FD880FD2FDF7
:103AD0008295C83038F60E949A09C4CF8C2F805E38
:103AE000883008F0BFCF81E0C1FD84E0C0FD880FC1
:103AF000C2FD8295F0CF0F93FC01CB01E851FC474A
:103B0000E730F10588F5EC54F54D0C94992906E25F
:103B100021EE41EE6AE17CE787DF80E00F910895B6
:103B200007E225EE45EE6BE17CE7F6CF06E221EEFB
:103B300040EE68E17CE7F0CF07E225EE44EE69E174
:103B40007CE7EACF06E221EE42EE6CE17CE7E4CFCF
:103B500007E225EE46EE6DE17CE7DECF08E221E0EC
:103B600045EE6EE17CE7D8CFFB0185818111109293
:103B7000BC0381E0D3CF8093C1039093C203089527
:103B80000895089597D2982F81E0913009F080E050
:103B90000895E091C103F091C203309739F001908C
:103BA000F081E02D309711F00995089580E0089597
:103BB000EF92FF920F931F93CF93DF93EC01E0916D
:103BC000C103F091C2033097F1F10280F381E02D3F
:103BD0003097C9F109958091A20382FF34C080FF1C
:103BE0000DC088811F928F9388EE99E09F938F93E9
:103BF0000E94D3060F900F900F900F907E0186E0E9
:103C0000E80EF11C02EE19E08091A20380FF0BC0C8
:103C10008A811F928F931F930F930E94D3060F9058
:103C20000F900F900F902196CE15DF0569F78091C8
:103C3000A20380FF08C080EE99E09F938F930E94BB
:103C4000D3060F900F90CDB7DEB7E6E00C94C729EE
:103C5000EF92FF920F931F93CF93DF93EC01E091CC
:103C6000C103F091C203309709F444C08481958167
:103C7000892B09F43FC086E088830480F581E02D1C
:103C8000CE0109958091A20382FF34C080FF0DC050
:103C900089811F928F938BEC99E09F938F930E9461
:103CA000D3060F900F900F900F907E018EE1E80EDB
:103CB000F11C05EC19E08091A20380FF0BC08A8102
:103CC0001F928F931F930F930E94D3060F900F9014
:103CD0000F900F902196CE15DF0569F78091A20312
:103CE00080FF08C083EC99E09F938F930E94D306D6
:103CF0000F900F90CDB7DEB7E6E00C94C729E091A6
:103D0000C103F091C203309759F026813781232BEC
:103D100039F022E0DC012C930680F781E02D099533
:103D20000895A3E0B0E0E7E9FEE10C94AF2920910B
:103D3000BF033091C00328173907B1F08093BF0348
:103D40009093C003E091C103F091C203309761F0FA
:103D50000084F185E02D309739F023E029838A83B0
:103D60009B83CE01019609952396E2E00C94CB2922
:103D7000A3E0B0E0EEEBFEE10C94AF292091BD038F
:103D80003091BE0328173907B1F08093BD0390939B
:103D9000BE03E091C103F091C203309761F000844B
:103DA000F185E02D309739F024E029838A839B83C5
:103DB000CE01019609952396E2E00C94CB29CF938E
:103DC000DF93C0910201D0910301DCDE811521F067
:103DD0008091270587FD11C09E012E5F3F4F96E021
:103DE00080E09150F90140812F5F3F4F41118F5F7B
:103DF0009111F7CFDF91CF9108952091000130917B
:103E000001012E5F3F4F9EE1EBCFCF93C82F811171
:103E100002C080E02EC0B6DE811521F0809127051A
:103E200087FD0FC08091020190910301FC01329641
:103E3000089620812C17F9F03196E817F907C9F791
:103E4000E8CF8C2F869586958695C03F10F7E09138
:103E50000001F0910101E80FF11D228130E0C770EF
:103E600081E001C0880FCA95EAF7282381E0232B5F
:103E700081F2CF91089581E0FCCF9C01FC01329644
:103E800080E09FEF4081461759F031969F3F19F42B
:103E9000411101C0982F8F5F8630A1F79F3F09F431
:103EA0000895290F311D97FD3A95F9016283089510
:103EB000FC01329608962191261302C0DF011E9262
:103EC000E817F907C1F70895262F26952695269518
:103ED000603F68F4820F911DFC01677021E001C012
:103EE000220F6A95EAF78281822B8283089580915E
:103EF000A20380FF0CC01F926F938FE19AE09F9303
:103F00008F930E94D3060F900F900F900F900895FB
:103F1000262F269526952695603F70F4820F911DD9
:103F2000FC019DEF61FD97EF60FF959562FD929515
:103F300082818923828308958091A20380FF0CC02F
:103F40001F926F9381E09AE09F938F930E94D30614
:103F50000F900F900F900F900895CF93C82F12DEFF
:103F60006C2F811559F08091270587FF07C080913C
:103F7000000190910101A8DFCF9108958091020185
:103F8000909103017ADFF8CFCF93C82FFBDD6C2F20
:103F9000811559F08091270587FF07C080910001A6
:103FA00090910101B5DFCF91089580910201909128
:103FB00003017EDFF8CFE6DD811571F080912705E2
:103FC00087FF0AC0E0910001F091010132968EE175
:103FD00011928A95E9F70895E0910201F0910301A9
:103FE000329686E0F5CFDC01FB0111969C9111978A
:103FF0008181981322C012968C911297811519F025
:10400000928189131AC013968C911397811519F018
:104010009381891312C015968C911597811519F00B
:10402000958189130AC014969C91911521F081E025
:104030002481291303C080E001C081E081700895CC
:104040000895FECF08958F5F80930F0160910C015A
:1040500070910D0180910E0190910F01F2CF83E0DC
:1040600080930F0160910C0170910D0180910E0100
:1040700090910F01E6CFE7CF089581E080930F0183
:1040800060910C0170910D0180910E0190910F01D2
:10409000D8CFF3CF089591E0811101C090E09093C3
:1040A0000E0160910C0170910D0180910E019091B3
:1040B0000F01C7CF80910E01089580930D0160918B
:1040C0000C0170910D0180910E0190910F01B9CFFB
:1040D00080910D01089580930C0160910C01709105
:1040E0000D0180910E0190910F01ABCF80910C01D9
:1040F000089508950895FECF089508950895F9CF7D
:1041000008950F931F93CF93DF93F7DF0E946B15F2
:10411000F5DF03EC13E0C0E0D0E08C2F0E9409151E
:104120009C01F801819331938F0191E0232B09F4D5
:1041300090E0D92BCF5FC53081F78D2FDF91CF91E4
:104140001F910F910895E82FF0E0EE0FFF1FED5340
:10415000FC4F81E090E002C0880F991F6A95E2F75A
:10416000BC01808191816823792381E0672B09F468
:1041700080E00895411115C0E82FF0E0EE0FFF1F19
:10418000ED53FC4F81E090E002C0880F991F6A95C3
:10419000E2F780959095208131818223932380835B
:1041A00091830895CF93DF93EC016BD08C1B9D0B13
:1041B000DF91CF91089585B7806885BF85B7806806
:1041C00085BF08951F921FB61F9211248F939F934E
:1041D000AF93BF938091CD03811113C080913D05B2
:1041E00090913E05A0913F05B09140054196A11DDB
:1041F000B11D80933D0590933E05A0933F05B0937C
:104200004005BF91AF919F918F911F901FBE1F904E
:10421000189580914505843031F10E944F08109225
:10422000CD0388E190E020E40FB6F894A895809340
:1042300060000FBE2093600083B7817F846083BFDE
:1042400083B7816083BF7894889583B78E7F83BF5F
:104250000FB6F894A8958091600088618093600003
:10426000109260000FBE08950E94A50B0C94530895
:1042700082E084BD93E095BD9AEF97BD80936E0078
:1042800008952FB7F89480913D0590913E05A09137
:104290003F05B09140052FBF08952FB7F894609166
:1042A0003D0570913E0580913F05909140052FBFDF
:1042B000089578941F921FB61F9211248F939F9395
:1042C000AF93BF9380913D0590913E05A0913F052E
:1042D000B09140050196A11DB11D80933D059093BD
:1042E0003E05A0933F05B0934005BF91AF919F91CC
:1042F0008F911F901FBE1F90189587E797E78093B7
:1043000000089093010888E19AE00FB6F894A89508
:10431000809360000FBE90936000FFCF88E19AE029
:104320000FB6F894A895809360000FBE909360003C
:10433000FFCF9B01AC01F89460E079E08DE390E061
:10434000D6D7C901DA010197A109B109B695A79598
:10435000979587958093CC0082E08093C80088E988
:104360008093C90086E08093CA00109210041092D6
:1043700011041092CE031092CF0378940895909177
:1043800011049F5F20911004291303C00FB607FE8C
:104390000EC0209110042917E1F3E92FF0E0EE5E42
:1043A000FB4F80839093110488EB8093C90008959C
:1043B0009091CF038091CE039817D1F39091CE03C3
:1043C0009F5F903408F090E0E92FF0E0E053FC4F5D
:1043D00080819093CE0308958091CF039091CE0376
:1043E000282F30E0891730F081E0921713060CF087
:1043F00080E00895205C3F4FF7CF8F938FB78F9366
:104400009F93EF93FF939091110480911004981360
:104410000AC088E98093C900FF91EF919F918F9125
:104420008FBF8F911895809110048F5FE82FF0E077
:10443000EE5EFB4F90819093CE0080931004ECCF02
:104440002F932FB72F938F939F93EF93FF93909179
:10445000CE008091CF038F5F803408F080E0209100
:10446000CE03281739F0E82FF0E0E053FC4F90839B
:104470008093CF03FF91EF919F918F912F912FBF49
:104480002F9118959B01BA01909145059430D9F46C
:104490008F708093E9009FEF8091E80085FD06C052
:1044A00085ED8A95F1F700009150B1F78091E80011
:1044B00085FF09C040E050E0C901A0D28091E8002A
:1044C0008E778093E800089543E050E0BC0182E0DD
:1044D000D9CF46E050E0BC0182E0D4CF40E250E0CA
:1044E000BC0182E0CFCFCF93DF93EC01E3DD48E066
:1044F00050E0BE0181E0C6DF88E0FE01A5E1B5E045
:1045000001900D928A95E1F7DF91CF91089508957A
:1045100083E69AE09F938F930E94D306809144058F
:104520000F900F90811107C0F7D347D48091E2001C
:1045300084608093E20008958FE59AE09F938F93C3
:104540000E94D306109244050F900F9008958BE5BA
:104550009AE09F938F930E94D3068FDD81E09BDDCD
:104560000F900F900895A0E0B0E0E8EBF2E2F7C6FC
:1045700087E59AE09F938F930E94D306609141054F
:1045800081E0611101C080E06ADD0F900F90E2E0F0
:1045900002C7A0E0B0E0EEECF2E2E1C683E59AE00B
:1045A0009F938F930E94D3069091450581E09430AC
:1045B00009F080E0609141055EDD0F900F90E2E030
:1045C000EAC6209113052F5F822F62E371D6911501
:1045D00019F0209313050895109213058091140586
:1045E0008115E9F0809145058430B9F49091E90096
:1045F0008091EC009F7080FB882787F9892B93E0DE
:104600009093E9009091EB0090FF04C09091EE0030
:1046100097FD08C08F708093E900109214050895EB
:104620001092F1009091E80095FDFACF9091E8008A
:1046300090FFF0CF9091E8009E779093E800EACF4A
:1046400042E061EC81E0E4D242E261EC82E0E0D25F
:1046500042E261EC83E0DCD29091450581E0943048
:1046600009F080E060914105EECC809147058930EA
:1046700081F148F4823009F496C0833009F457C0C0
:10468000813041F008958A3009F480C08B3009F4FC
:1046900068C0089580914605813A09F047C080912D
:1046A000E800877F8093E80080914A0590914B0550
:1046B000892B59F060E080E090E070E0ECD18091CF
:1046C000E8008B778093E800089568E085E195E045
:1046D000F4CF80914605813249F580914A05909149
:1046E0004B05029718F58091E800877F8093E800DA
:1046F0008091E80082FF16C02091F3008091F200C3
:10470000922F029731F48091F100813011F08630C0
:1047100019F48091F100D1DC8091E8008B778093CF
:10472000E800AAC2809145058111E2CF08958091E9
:104730004605813AD9F780914A0590914B05892B1E
:10474000A9F78091E800877F8093E8008091E800D6
:1047500080FFFCCFAFDC8093F1008091E8008E7782
:10476000DECF80914605813209F780914A0590910C
:104770004B05892BD9F68091E800877F8093E8006C
:104780007BD28091480587DC0C94A50B809146056F
:10479000813261F68091E800877F8093E8006CD2D7
:1047A0008091490598CC80914605813A09F0BECFA9
:1047B0008091E800877F8093E8008091E80080FF87
:1047C000FCCF94DCC8CF9FB7F894109214059FBF1C
:1047D00090914505943009F047C02091E9009091EF
:1047E000EC002F7090FB992797F9922B23E02093F0
:1047F000E9002091EB0020FF34C02091EE0027FF5C
:1048000030C020911205211521F02091E80025FFEC
:1048100028C01092120526E03091E80035FF14C040
:104820008093F1008091E80085FD27C08091E80029
:1048300080FFFCCF8091E8008E778093E8009F7026
:104840009093E90080E0089530914505343049F4B3
:104850003091EB0035FD05C0215041F481E080939B
:1048600012059F709093E9008FEF0895EFE9FFE044
:104870003197F1F700C00000CFCF8FB7F89421E057
:10488000209314058FBFDBCF84B7877F84BF0FB61B
:10489000F894A895809160008861809360001092E0
:1048A00060000FBE80E890E00FB6F894809361003E
:1048B000909361000FBEEDCB2FD27FD2E2EEF0E0FD
:1048C0008081846080837894DAC480E191E053C968
:1048D00080914505853089F48091A20380FF08C04E
:1048E0008DE39AE09F938F930E94D3060F900F90D1
:1048F00080914505853011F0B7CC08958ADC01DC44
:104900008115B1F380914305811591F361D00E9427
:10491000A50BEECF08959A0140914C0550914D059D
:1049200000C0492F50E043305105D1F078F44130B8
:10493000510509F448C04230510571F484E590E016
:104940004BEA5AE0F9014083518308954132510501
:10495000E9F04232510539F180E090E040E0F2CFD9
:10496000482F50E0813061F04230510561F0E7EAB4
:10497000FAE04115510581F7849190E0AF01E2CF53
:10498000E7E8FAE0F9CFE7E6FAE0F6CF6330710541
:1049900018F7660F771FFB01E853FD4F40815181E7
:1049A00089E090E0CFCF63307105B0F6FB01EE0FE8
:1049B000FF1FEE53FD4F4081518161547D4FFB013C
:1049C000808190E0BFCF82E190E04FEF5AE0BACF14
:1049D00080E189BD82E189BD09B400FEFDCF8091EF
:1049E000D8008F7D8093D8008091E0008260809312
:1049F000E0008091E00081FDFCCF0895AF92BF926E
:104A0000CF92DF92FF920F931F93CF93DF936C01AE
:104A1000EB018A0150D1F82E811123C00115110537
:104A200039F0F80180819181C81BD90BC80ED91EBD
:104A3000A12CB12C2097A9F08091E80085FD21C020
:104A40008091E8008E778093E80001151105A1F0B0
:104A5000F801808191818A0D9B1D8083918385E07F
:104A6000F82E8F2DDF91CF911F910F91FF90DF9046
:104A7000CF90BF90AF9008951ED18115E9F2F82E26
:104A8000F0CFF60181916F018093F10021978FEFB4
:104A9000A81AB80ACFCFFC0120914C0530914D05E2
:104AA0002617370720F06115710569F09B0190E02A
:104AB0002115310571F491110CC08091E80082FF3D
:104AC00038C080E008959091E8009E779093E800C8
:104AD000EDCF809145058115C1F18530C1F18091FF
:104AE000E80083FD30C08091E80082FDE6CF809130
:104AF000E80080FFDDCF8091F3004091F200582F55
:104B00002115310519F04830510558F091E0483031
:104B1000510509F090E04091E8004E774093E8009D
:104B2000C7CF81918093F100215031094F5F5F4FD2
:104B3000E7CF80914505811541F0853041F08091A6
:104B4000E80083FFBACF81E0089582E0089583E012
:104B50000895FC0120914C0530914D05261737072B
:104B600020F06115710569F09B0190E02115310578
:104B700071F491110CC08091E80082FF39C080E08F
:104B800008958091E8008E778093E800EDCF8091C2
:104B900045058115C9F18530C9F18091E80083FD93
:104BA00031C08091E80082FDE6CF8091E80080FF6F
:104BB000DDCF8091F3004091F200582F211531058F
:104BC00019F04830510558F091E04830510509F08E
:104BD00090E08091E8008E778093E800C7CF8491C1
:104BE0008093F1003196215031094F5F5F4FE6CF3E
:104BF00080914505811541F0853041F08091E800B4
:104C000083FFB9CF81E0089582E0089583E008959D
:104C1000982F973028F08F708093E90081E00895F5
:104C20009093E900242F762F50E0981731F070917F
:104C3000EC002091ED005091F00021FD02C09F5F3B
:104C4000E8CF3091EB003E7F3093EB003091ED00E8
:104C50003D7F3093ED003091EB0031603093EB00FD
:104C60007093EC002093ED005093F0002091EE0043
:104C700027FDE5CF80E008958091460587FF13C0AA
:104C80008091E80082FF06C08091E8008B778093D6
:104C9000E8000895809145058111F2CF0895809133
:104CA00045058115D9F38091E80080FFF8CF809108
:104CB000E8008E77ECCF2091E4003091E50095E696
:104CC000A9012091EC00822F817020FF06C0809105
:104CD000E80080FF06C080E008952091E80022FDF2
:104CE0001AC080914505811589F0853089F0809141
:104CF000EB0085FD0FC02091E4003091E5004217E4
:104D00005307F9F29150E1F684E0089582E00895A6
:104D100083E0089581E008955FD066D0E0EEF0E092
:104D2000808181608083E8ED80818F77808319BCEA
:104D3000A7EDB0E08C918E7F8C9380818F7E8083F5
:104D4000109244050895CF93DF9346D04DD0C8ED1F
:104D5000D0E088818F778883888180688883888184
:104D60008F7D888319BC10924505109241051092E1
:104D7000430510924205E0EEF0E080818B7F808356
:104D800088818160888342E060E080E041DFE1EE7D
:104D9000F0E080818E7F8083E2EE8081816080837D
:104DA000808188608083E0EE80818E7F808388812F
:104DB00080618883DF91CF910895E8EDF0E08081F4
:104DC0008F7E8083E7ED80818160808384E082BF75
:104DD00081E080934405B7CFE8EDF0E080818E7FDD
:104DE00080831092E20008951092DA001092E100A0
:104DF00008951F920F920FB60F9211242F933F9395
:104E00004F935F936F937F938F939F93AF93BF93D2
:104E1000EF93FF938091E10082FF0AC08091E2004E
:104E200082FF06C08091E1008B7F8093E100C9DBA7
:104E30008091DA0080FF18C08091D80080FF14C0F4
:104E40008091DA008E7F8093DA008091D90080FF14
:104E50008FC080E189BD82E189BD09B400FEFDCF2C
:104E600081E08093450554DB8091E10080FF18C00C
:104E70008091E20080FF14C08091E2008E7F8093D9
:104E8000E2008091E20080618093E2008091D8008E
:104E900080628093D80019BC85E08093450563DB70
:104EA0008091E10084FF28C08091E20084FF24C04B
:104EB00080E189BD82E189BD09B400FEFDCF80910A
:104EC000D8008F7D8093D8008091E1008F7E809301
:104ED000E1008091E2008F7E8093E2008091E20009
:104EE00081608093E20080914105811509F445C0FD
:104EF00084E0809345054DDB8091E10083FF27C06E
:104F00008091E20083FF23C08091E100877F80933E
:104F1000E10082E080934505109241058091E10017
:104F20008E7F8093E1008091E2008E7F8093E2008B
:104F30008091E20080618093E20042E060E080E0E6
:104F400067DE8091F00088608093F00000DBFF91C5
:104F5000EF91BF91AF919F918F917F916F915F91F1
:104F60004F913F912F910F900FBE0F901F9018956A
:104F700019BC10924505E0DA77CF8091E30087FFF6
:104F800002C083E0B6CF81E0B4CF1F920F920FB67C
:104F90000F9211241F932F933F934F935F936F931F
:104FA0007F938F939F93AF93BF93CF93DF93EF93B1
:104FB000FF93E9EEF0E080811091EC008F7010FB20
:104FC000112717F9182B1082C0EFD0E08881877F56
:104FD000888378941CD0E9EEF0E0108288818860A4
:104FE00088831F701083FF91EF91DF91CF91BF9164
:104FF000AF919F918F917F916F915F914F913F9171
:105000002F911F910F900FBE0F901F901895AAE23D
:10501000B0E0ECE0F8E2A2C186E495E0FC01019684
:105020002091F100208325E08E349207B9F71DDB33
:105030008091E80083FF37C0809146059091470535
:105040009A3088F5E92FF0E0E554F54D72C18038CB
:1050500089F0823841F580914A058F70873018F5C4
:105060008093E9008091EB0085FB882780F91092FE
:10507000E90006C080914305880F90914205892B75
:105080009091E800977F9093E8008093F100109250
:10509000F1008091E8008E7722C0811115C08091C7
:1050A0004805813001F18091E80083FF0AC08091BA
:1050B000E800877F8093E8008091EB008062809316
:1050C000EB00AA96E3E066C1823069F7809148055B
:1050D000811579F01092E9008091E800877F809334
:1050E000E800CADDE0CF933009F080E0809343050B
:1050F000F1CF80914A058F70282F2150263098F6E5
:105100008093E9002091EB0020FFE4CF933031F44D
:105110008091EB0080628093EB00DCCF9091EB00FC
:1051200090619093EB0021E001C0220F8A95EAF78D
:105130002093EA001092EA008091EB008860EBCFA8
:105140008111B1CF809148058F77182F8091E300AE
:105150008078812B8093E3008091E800877F8093A3
:10516000E8008ADD8091E80080FFFCCF8091E300B9
:1051700080688093E30083E0111101C082E0809396
:10518000450591CF8058823008F08DCF8091480539
:10519000909149058C3D23E0920789F583E08A834D
:1051A0008AE289834FB7F894DE01139620E03EE04F
:1051B00051E2E32FF0E050935700849120FF03C0A9
:1051C00082958F703F5F8F708A30B8F0895C8D93C5
:1051D0001D922F5F243169F74FBF8091E800877FD0
:1051E0008093E8006AE270E0CE01019654DC809181
:1051F000E8008B778093E80056CF805DE8CF609120
:105200004A0570914B05AE014F5F5F4F84DBBC01D7
:10521000892B09F448CF9091E800977F9093E8009C
:1052200089819A8196DCE3CF803809F03CCF809168
:10523000E800877F8093E800809141058093F1002A
:1052400028CF811130CF90914805923008F02BCFB4
:105250008091E800877F8093E800909341050CDD02
:1052600080914105811529F084E080934505E8D9B6
:105270001ACF8091E30087FDF7CF81E0F6CFCF937F
:1052800080914505811591F08091E900C091EC0075
:105290008F70C0FBCC27C7F9C82B1092E900809112
:1052A000E80083FDB4DECF70C093E900CF9108958C
:1052B000992778E0880F991F961708F0961B881F8A
:1052C0007A95C9F78095089597FB072E16F40094F8
:1052D00006D077FD08D06AD007FC05D03EF4909543
:1052E00081959F4F0895709561957F4F0895A1E234
:1052F0001A2EAA1BBB1BFD010DC0AA1FBB1FEE1F50
:10530000FF1FA217B307E407F50720F0A21BB30B9A
:10531000E40BF50B661F771F881F991F1A9469F716
:1053200060957095809590959B01AC01BD01CF0172
:105330000895EE0FFF1F0590F491E02D09942F9230
:105340003F924F925F926F927F928F929F92AF9215
:10535000BF92CF92DF92EF92FF920F931F93CF9362
:10536000DF93CDB7DEB7CA1BDB0B0FB6F894DEBFF9
:105370000FBECDBF09942A88398848885F846E841F
:105380007D848C849B84AA84B984C884DF80EE8069
:10539000FD800C811B81AA81B981CE0FD11D0FB672
:1053A000F894DEBF0FBECDBFED010895AA1BBB1B55
:1053B00051E107C0AA1FBB1FA617B70710F0A61B15
:1053C000B70B881F991F5A95A9F780959095BC0136
:1053D000CD010895FB01DC0104C08D91019080197D
:1053E00021F441505040C8F7881B990B0895F99952
:1053F000FECF92BD81BDF89A992780B50895A8E1A6
:10540000B0E042E050E020C0262FF999FECF92BDD7
:1054100081BDF89A019700B4021639F01FBA20BD79
:105420000FB6F894FA9AF99A0FBE08950396272FAB
:10543000ECDFEADF252FE9DF242FE7CF0196272FC6
:10544000E4DFE2CFDC01CB01FC01F999FECF06C01D
:10545000F2BDE1BDF89A319600B40D924150504032
:10546000B8F70895F894FFCFDA09DA09110A110A9A
:10547000680A840A020A020A880AFA0A070B070B5A
:10548000211808182A187617C418C4180118C41847
:10549000C4185A18C4186A18AB18C418C418C41809
:1054A000C4188518C418C4187A18C4184318C41826
:1054B000C418C218C218C218C218C218C218C2181A
:1054C000C218C218BD18C4182118F717C418C41878
:1054D000C418C418C418C418C418C418C418C418EC
:1054E000BD18C418C4180118C418C018C018C018B2
:1054F000C018C018C018C018C018C018BD18A91905
:10550000181AB1197B197F19B5198319B919C51959
:105510008F19111A9319C9199719CD19F2199B19D5
:10552000D119F919A119D719DF198719BD198B19C3
:10553000C119A519DB19E919021A0F1A7519AD1944
:105540001F1AB81ABD1ABF1AC41AD41AD41AD41AF8
:10555000D41AD41AD41AD41AD41AC61ACA1ACD1AFA
:10556000D21AE11AE71AEB1A961D9C1D871D901D91
:10557000A21DA81DAE1D27284D2853284D285328AD
:0A558000A028C2285328142921296D
:10558A006E038E03280850011E0A14010000010050
:10559A00682073226E2269226422E200E900EA008E
:1055AA00B500B600B700CD008301CC008A01920194
:1055BA0094012102230224022502260227022A023A
:1055CA00B300B4006F0070009F01CB019F02A002DC
:1055DA00E200E900EA00B500B600B700CD00830199
:1055EA00CC008A019201940121022302240225029D
:1055FA00260227022A02B300B4006F0070009F013E
:10560A00CB019F02A0023F3F3F006D6B5F64656C58
:10561A006179006D6B5F696E74657276616C006D9D
:10562A006B5F6D61785F7370656564006D6B5F7445
:10563A00696D655F746F5F6D6178006D6B5F776828
:10564A0065656C5F6D61785F7370656564006D6B2D
:10565A005F776865656C5F74696D655F746F5F6DB0
:10566A006178000A092D2056657273696F6E202DC4
:10567A000A5649443A2030783444343428224D6159
:10568A00747469612044616C2042656E222920503D
:10569A0049443A2030783532353728225265646FCA
:1056AA007820576972656C657373222920564552B2
:1056BA003A203078303030310A4255494C443A2049
:1056CA0020284A616E2020382032303236290A4F8B
:1056DA005054494F4E533A204C55464120424F4F61
:1056EA00544D41474943204D4F5553454B45592049
:1056FA0045585452414B455920434F4E534F4C4500
:10570A0020434F4D4D414E44204E4B524F20343092
:10571A0039360A4743433A2031352E322E3020415A
:10572A0056522D4C4942433A20322E322E312041D4
:10573A0056525F415243483A20617672350A004414
:0E574A00B615DC0B260B110BBD0AD60AEF0AB2
:00000001FF
